:020000040800F2
:10000000107C0020AD010008A3340008892F0008EF
:10001000A134000891080008C95100080000000040
:100020000000000000000000000000005B35000838
:100030009D10000800000000593500085D350008DB
:10004000C7010008C7010008C7010008C701000870
:10005000C7010008C7010008C7010008C701000860
:10006000C7010008C7010008C7010008C701000850
:10007000C7010008C7010008C7010008C701000840
:10008000C7010008C7010008C70100080000000000
:10009000000000000000000000000000C701000890
:1000A000C7010008C7010008C7010008C701000810
:1000B000593600086536000871360008C701000887
:1000C000C7010008C7010008C7010008C7010008F0
:1000D000C7010008A93C0008C70100080000000093
:1000E000C7010008C7010008C701000800000000A0
:1000F000000000000000000000000000C701000830
:1001000000000000C70100087D360008C701000894
:1001100000000000000000000000000000000000DF
:10012000C7010008C701000809100008C70100083E
:10013000C7010008000000000000000000000000EF
:10014000000000000000000000000000C5340008AE
:10015000C7010008C701000815100008C701000802
:10016000C7010008C70100080000000000000000EF
:10017000000000000000000000000000000000007F
:1001800000000000C701000800000000000000009F
:10019000C7010008C7010008DFF80CD000F0EAFA38
:1001A0000048004785600008107C00200648804712
:1001B00006480047FEE7FEE7FEE7FEE7FEE7FEE74C
:1001C000FEE7FEE7FEE7FEE70536000899010008B6
:1001D0002DE9F05F0546002092469B46884606467C
:1001E000814640241BE0284641464746224600F00F
:1001F000A3F953465A46C01A914110D311461846E6
:10020000224600F08AF92D1A67EB01084F46224674
:100210000120002100F081F917EB00094E41201E5A
:10022000A4F10104DFDC484631462A464346BDE8D6
:10023000F09F40EA01039B0703D009E008C9121FA1
:1002400008C0042AFAD203E011F8013B00F8013B90
:10025000521EF9D27047D2B201E000F8012B491EBC
:10026000FBD270470022F6E710B513460A46044653
:100270001946FFF7F0FF204610BD2DE9FE4F8046DE
:1002800081EA0300C00F0C46009021F0004123F0EA
:100290000045B8EB0200A94105D2404621469046F0
:1002A0001C460B46024623F00040104347D0270D62
:1002B000C7F30A00C3F30A510290401A0190402884
:1002C0006BDAC3F3130040F4801B0098924620B110
:1002D0000023D2EB030A63EB0B0B01985946C0F1E4
:1002E0004002504600F019F906460D465046594660
:1002F000019A00F031F910EB08006141002487EA0F
:10030000115284EAE7731A4340D0009A62B3019A0B
:10031000012A4FEA075215DC001B61EB02014FF086
:10032000004202EA0752CDE90042001C41F580116B
:1003300032462B4600F031F903B0BDE8F08F40465D
:100340002146F9E7001B61EB0201001C41F5801317
:1003500000185B412018A2F5001747EB030140EAA3
:10036000D570B6196D4111E06D084FEA360645EAC1
:10037000C0754FEA0752001B61EB0201001C41F5FA
:10038000801149084FEA30000019514132462B468E
:1003900003B0BDE8F04F00F0F1B800980122400032
:1003A0000023D0EB020263EBE073009821464FEA92
:1003B000E074B8EB000061EB0401E9E783F000436F
:1003C0005BE781F0004158E72DE9FE4F81EA030425
:1003D00004F0004421F0004100944FF0000B23F0A2
:1003E000004350EA01045ED052EA03045BD0C3F339
:1003F0000A54C1F30A552C44A4F2F3340194A0FB2F
:100400000254C1F3130141F48011C3F3130343F405
:10041000801301FB024400FB034E840A970A44EA5E
:10042000815447EA8357A4FB076802958D0A05FBB0
:1004300007854FEA932C04FB0C542705029D4FEAD5
:10044000065847EA1637B5EB08056EEB070C870E22
:10045000920E47EA811742EA8312A7FB0201B6EB2C
:100460000B0164EB00042B0D43EA0C335E1844EBE4
:100470001C50DA465146E7FB0201C5F313044FEA6C
:100480000B3343EA14534FEA0432019C43EA060358
:10049000A4F10C040294009CCDE900B400F07DF8B6
:1004A00003B0BDE8F08F00200146F9E70EB5C10F9B
:1004B00080EAE0700844CA07002140F233438DE827
:1004C0000E000A460B4600F068F803B000BD0EB5FA
:1004D00040F2334102910021CDE900110A460B465A
:1004E00000F05BF803B000BDC1F30A5210B5C1F3D0
:1004F000130140F2FF3341F480119A4201DA0020E7
:1005000010BD40F233439A42A2F2334203DC52421E
:1005100000F012F810BD904010BD202A04DB203AF4
:1005200000FA02F1002070479140C2F1200320FA46
:1005300003F3194390407047202A04DB203A21FA44
:1005400002F00021704721FA02F3D040C2F12002EC
:100550009140084319467047202A06DBCB17203A02
:1005600041FA02F043EAE07306E041FA02F3D040B8
:10057000C2F12002914008431946704710B5141E7D
:1005800073F1000408DA401C41F1000192185B414C
:100590001A4301D120F0010010BD2DE9F04D924623
:1005A0009B4611B1B1FA81F202E0B0FA80F220323A
:1005B0009046FFF7B2FF04460F4640EA0A0041EAC0
:1005C0000B0153465A46084313D0114653EA010023
:1005D00019D0C8F140025046FFF7AEFF05460E465F
:1005E000504659464246FFF798FF084305D0012080
:1005F00004E020463946BDE8F08D0020054346EA78
:10060000E0762C4337430A986305E40AA0EB080020
:100610000022FD0A44EA47540A3002D50020014670
:10062000E9E7010510196941DDE90845001969414B
:10063000BDE8F04DA2E72DE9F04D81EA030404F096
:10064000004B21F0004514464FF0000A23F0004112
:1006500050EA050220D054EA01021DD0C5F30A5722
:100660000246C5F31303C1F31300C1F30A5640F465
:10067000801543F48013A7EB0608101BD64608F23A
:10068000FD3873EB050002D308F1010801E0921870
:100690005B41B8F1000F03DA00200146BDE8F08DA0
:1006A00000204FF48011064684460EE0171B73EBC2
:1006B000050705D3121B63EB050306434CEA010C47
:1006C00049084FEA300092185B4150EA0107EDD12A
:1006D00052EA030012D082EA040083EA05010843CB
:1006E00005D0101BAB4106D20122002306E00022F8
:1006F0004FF0004302E06FF0010253101AEB0600C6
:100700004CEB085110EB0A0041EB0B01BDE8F04D3A
:10071000FFF734BF70B521F0004303430CD0C1F3A1
:100720000A550024D5EB040564EB0403D617AD1A73
:10073000B34102DB0020014670BD201841EB02519D
:1007400070BD000030B5041E71F1000404DB4FF0F1
:100750000044404264EB0101141E73F1000405DB08
:100760001C464FF00043524263EB0403994208BF1A
:10077000904230BD064C074D06E0E06840F00103B2
:1007800094E8070098471034AC42F6D3FFF708FD11
:1007900088630008A86300082DE9F04D00231A467D
:1007A0001B1A8A4103DB00200146BDE8F08DC1F32E
:1007B0000A52C1F3130141F480154FF0000BD10729
:1007C00002D100186D41521E0027044640F2FF116D
:1007D000384601EB620A3E468046024600204FF44E
:1007E0008011FFF7A9FEC2197141BB1846EB010049
:1007F000B4EB030C75EB000C04D3E41A65EB0005B5
:1008000017460E46241908F101006D418046342830
:10081000E3DDF91946EB0600091BA84103D24FF0AE
:10082000FF32134601E0002213461BEB070046EBA4
:100830000A51BDE8F04DFFF7A1BE70B58C1810F855
:10084000015B15F0070301D110F8013B2A1106D115
:1008500010F8012B03E010F8016B01F8016B5B1E2F
:10086000F9D12B0705D40023521E0DD401F8013B0A
:10087000FAE710F8013BCB1A921C03E013F8015B76
:1008800001F8015B521EF9D5A142D8D3002070BDFA
:10089000FEE70020704700207047000010B50022DE
:1008A0000449054803F0D6FA0449034803F0CCFA9A
:1008B000002010BD10140020FC030020100C0020AC
:1008C00070B50D4604460146054803F0BDFA0448DC
:1008D00003F09EFA2046296800F004F8002070BD5D
:1008E000FC0300202DE9F04F04462DED048B084455
:1008F00081B010F8011C0A294FD12178DFF8E0A35C
:10090000DFF8E093F84DF94FF94E4FF4804B4FF07C
:1009100000084F297ED016DCDFF8D8B3412941D03A
:10092000432978D0442938D110F8020C4FF40071D3
:100930004E2871D0002201B05846BDEC048BBDE8B2
:10094000F04F00F0D8BDEC4C502966D0532924D18B
:100950000821EA4802F06CF90021E94802F068F940
:100960000821E84802F064F9E74801F097FE012207
:100970005946504600F0BFFD009473687A685020D5
:10098000696800F069FA1421204600F04FFAC5F8B2
:100990000480C7F80480C6F8048001B0BDEC048B65
:1009A000BDE8F08FCF480078A8B1C5F80480C7F83B
:1009B000048001221146D1465046C6F8048000F05A
:1009C0009AFD01221021484600F095FD01220821E0
:1009D000584600F090FD6078BB4630382872E07BC6
:1009E00030383872607F3038307208279FEDC78BFF
:1009F000A946E05D3038FFF759FD41EC190BC7F10E
:100A00000D00FFF753FD41EC110BB0EE480AF0EE7C
:100A1000680A03E08CE157E188E1D9E104F0F0FBDA
:100A200053EC192B51EC100BFFF7CEFC41EC190BDA
:100A30004D46D9F80400FFF74AFD53EC192BFFF798
:100A40001CFCFFF751FD7F1C68600E2FD1DB1625C3
:100A5000605D3038FFF72AFD41EC190BC5F11B0032
:100A6000FFF724FD41EC110BB0EE480AF0EE680AE6
:100A700004F0C6FB53EC192B51EC100BFFF7A4FC50
:100A800041EC190B5F46DBF80400FFF720FD53EC47
:100A9000192BFFF7F2FBFFF727FD6D1C78601C2D6B
:100AA000D6DB2425B246605D3038FFF7FFFC41EC11
:100AB000190BC5F12900FFF7F9FC41EC110BB0EE61
:100AC000480AF0EE680A04F09BFB53EC192B51EC3A
:100AD000100BFFF779FC41EC190B5646DAF80400CD
:100AE000FFF7F5FC53EC192BFFF7C7FBFFF7FCFCF6
:100AF0006D1C70602A2DD6DB864D0226C5F800805D
:100B0000A05D3038FFF7D2FC41EC190BC6F10700AD
:100B1000FFF7CCFC41EC110BB0EE480AF0EE680A8E
:100B200004F06EFB53EC192B51EC100BFFF74CFC4F
:100B300041EC190B2868FFF7CAFC53EC192BFFF79F
:100B40009CFBFFF7D1FC761C2860082ED8DBD9F877
:100B500000104F464FF03209814206D0386002F053
:100B6000C5FB66490968C1F83C9000201026286042
:100B7000A05D3038FFF79AFC41EC190BC6F1150067
:100B8000FFF794FC41EC110BB0EE480AF0EE680A56
:100B900004F036FB53EC192B51EC100BFFF714FC4F
:100BA00041EC190B2868FFF792FC53EC192BFFF767
:100BB00064FBFFF799FC761C2860162ED8DBDBF867
:100BC00000102868D846814207D0C8F8000002F01B
:100BD000A7FA4B490968C1F8349000201E26B0EEF0
:100BE000489AF0EE689A2860A05D3038FFF75EFC06
:100BF00041EC180BC6F12300FFF758FC41EC110B38
:100C0000B0EE490AF0EE690A04F0FAFA53EC182B38
:100C100051EC100BFFF7D8FB41EC180B2868FFF7DD
:100C200056FC53EC182BFFF728FBFFF75DFC761CF6
:100C30002860242ED8DBDAF800105446814206D012
:100C4000206002F0C1FA2F490968C1F83C90387A57
:100C500050B300220421304800F04DFC98F8080001
:100C6000454618B3012208212C4800F044FC207AA4
:100C7000F0B101224FF40041294800F03CFC7868B3
:100C800018B108211D4801F0A3FF686818B10021C0
:100C90001B4801F09DFF606818B10821194801F058
:100CA00097FF786830B109E00122D3E70022DAE744
:100CB0000022DFE7686808B9606810B10948007869
:100CC00074E0052117487CE0C5F80480C7F804806B
:100CD0000121C6F8048089F800100221124870E052
:100CE000000C02400800002098010020A401002010
:100CF000B001002000040240BC010020840200205A
:100D0000D00100200C02002048020020000000005A
:100D10000000244060000020000802400000024063
:100D2000001002400000002005000020012202E621
:100D3000287A48B300220421344800F0DCFB387ADA
:100D400020B301220821324800F0D5FB307AF8B1F7
:100D50005FF001024FF400412E4800F0CCFB6868C0
:100D600018B108212C4801F033FF786818B1002130
:100D70002A4801F02DFF706818B10821284801F0B9
:100D800027FF686830B10AE00122D4E70022D9E7E2
:100D90000022DFE7786810B97068002891D000223F
:100DA0005946504600F0A7FB99F8000000287FF450
:100DB000F4AD01B01B48BDEC048BBDE8F04F01F071
:100DC00061BC01B0BDEC048BBDE8F04F00F02EB863
:100DD0000821114801F02CFF0021104801F028FFE4
:100DE00008210F4801F024FF0E4801F057FC0122B2
:100DF0005946504600F07FFB009473687A68502093
:100E0000696800F029F814210748DAE70008024071
:100E1000000002400010024084020020D0010020A7
:100E20000C02002048020020BC010020094A10B535
:100E3000D2F81822D2F814220AB1012010BD0A46B5
:100E40000146044803F006F8BDE81040014803F0ED
:100E500041B80000FC030020F0B5059C20706948F3
:100E6000B1FBF0F530356570B1FBF0F500FB151600
:100E700042F21075B6FBF5F63036A670B1FBF0F60F
:100E800000FB1616B6FBF5F705FB17674FF47A76ED
:100E9000B7FBF6F73037E770B1FBF0F700FB171739
:100EA000B7FBF5FC05FB1C77B7FBF6FC06FB1C77D4
:100EB0004FF0640CB7FBFCF730372771B1FBF0F74C
:100EC00000FB1717B7FBF5FE05FB1E77B7FBF6FE19
:100ED00006FB1E77B7FBFCFE0CFB1E7E0A27BEFB43
:100EE000F7FE0EF1300E84F805E0B1FBF7FE07FBCC
:100EF0001E113031A171B2FBF0F13031E171B2FB62
:100F0000F0F100FB1121B1FBF5F130312172B2FBA0
:100F1000F0F100FB1121B1FBF5FE05FB1E11B1FB49
:100F2000F6F130316172B2FBF0F100FB1121B1FB3F
:100F3000F5FE05FB1E11B1FBF6FE06FB1E11B1FB13
:100F4000FCF13031A172B2FBF0F100FB1121B1FBD9
:100F5000F5FE05FB1E11B1FBF6FE06FB1E11B1FBF3
:100F6000FCFE0CFB1E11B1FBF7F13031E172B2FB5C
:100F7000F7F107FB112130312173B3FBF0F1303170
:100F80006173B3FBF0F100FB1131B1FBF5F13031CE
:100F9000A173B3FBF0F100FB1131B1FBF5F205FBDE
:100FA0001211B1FBF6F13031E173B3FBF0F100FB4C
:100FB0001131B1FBF5F205FB1211B1FBF6F206FBA4
:100FC0001211B1FBFCF130312174B3FBF0F100FBE5
:100FD0001130B0FBF5F105FB1100B0FBF6F106FB9B
:100FE0001100B0FBFCF10CFB1100B0FBF7F030304E
:100FF0006074B3FBF7F007FB10303030A074E77477
:10100000F0BD0000A0860100014800F05BB80000C0
:101010003C030020014800F055B800009C0300206C
:1010200001681823CAB2103AB2FBF3F2054B6FF312
:101030000901032A9B5CC36500D9091D8165084627
:1010400070470000D262000810B5014600208B698D
:101050008A6A4FF0C07453B1B3F5005F15D072B116
:10106000012A0CD0022A0AD0032A09D104E01AB1BD
:10107000012A06D0022A03D1C96AC90100D501207C
:1010800010BDC96AA142FAD010BD002AF7D0012ACA
:10109000F2D0022AF3D0032AF3D010BD704790F8A3
:1010A0003510022903D080214165012070470521B8
:1010B00080F835100068016821F00101016000200E
:1010C000704700002DE9F84304464FF00009CDF8C1
:1010D000009063484FF41651A56D0068B0FBF1F71E
:1010E0002E6894F85C10082000FA01F131420FD00C
:1010F00021680A6852070BD50A6822F004020A60C8
:1011000094F85C108840A860606D40F00100606554
:1011100094F85C104FF0010808FA01F0304208D052
:1011200021684969090604D5A860606D40F0020095
:10113000606594F85C1004208840304208D0216833
:101140000968890704D5A860606D40F004006065F7
:1011500094F85C1010208840304218D0216809684B
:10116000090714D5A86020680168490304D5006800
:10117000000308D5A16C07E00168C90503D4016824
:1011800021F008010160216C09B12046884794F8DC
:101190005C1020208840304231D021680968C9069F
:1011A0002DD5A86094F8350005282068016806D080
:1011B000490347D5006800031DD4616C1CE021F091
:1011C000160101602068416921F080014161206CB5
:1011D00008B9A06C20B12068016821F00801016005
:1011E00094F85C103F208840A86084F8349084F81C
:1011F0003580216D1FE0E16B09B120468847606DA5
:1012000000282BD0606DC00714D0052084F835006D
:101210002068016821F0010101600098401C0090E5
:10122000B84203D820680068C007F6D184F834902B
:1012300084F83580E16C002910D001B02046BDE86B
:10124000F04308470168C905D5D4016821F01001B1
:10125000016084F8349084F83580CCE7BDE8F883E9
:10126000700000202DE9F041044600F049F90646DF
:101270005CB1002584F83450022084F835002068E1
:10128000016821F0010101600DE00120BDE8F0815D
:1012900000F036F9801B052805D920206065032061
:1012A00084F83500F2E720680068C007F0D12268B2
:1012B000116820480140D4E901031843D4E90336FA
:1012C0003343184363691843A3691843E369184318
:1012D000236A18430843616A042903D1D4E90B1334
:1012E00019430843106020684069666A20F00701CE
:1012F00030460E43012704280CD1A06A0643E06A59
:1013000040B12046FFF7A0FE20B14020606584F880
:101310003570BAE7206846612046FFF781FE94F8F1
:101320005C203F2191408160656584F83570002024
:10133000ACE700003F8010F070B5044600F0E0F824
:101340000546601C02D004480078044400F0D8F838
:10135000401BA042FAD370BD640000202DE9F84F75
:10136000DFF860B100224FF001084FF0030A4FF0A0
:101370000F090BF1040E00BF0B6808FA02F42340BA
:10138000A3426ED14D68022D01D0122D0ED1D50889
:1013900000EB850CDCF820505607F70E09FA07F62B
:1013A000B5430E69BE402E43CCF820600668550058
:1013B0000F790AFA05FC07F0030726EA0C06AF408E
:1013C000374307604E68012E05D0022E03D0112E40
:1013D00001D0122E0ED18668CF6826EA0C06AF40E7
:1013E000374387604668A6430C79C4F300149440E1
:1013F00034434460C6688C6826EA0C06AC4034432B
:10140000C4604C68E40056D52F4C256845F48045EF
:101410002560246822F0030504F4804400942B4CDA
:101420002E19D6F8084895072F0F09FA07F5AC438F
:10143000274DA84201D1002515E0264DA84201D133
:10144000012510E0244DA84201D102250BE0234DD7
:10145000A84201D1032506E0214DA84202D104256E
:1014600001E028E00725BD402543C6F80858DBF811
:1014700000405D464E689C43F60300D51C432C603B
:10148000DEF8004075464E689C43B60300D51C4309
:101490002C600C4D08352C684E689C43F60200D534
:1014A0001C432C60074D0C352C684E689C43B602DB
:1014B00000D51C432C60521C102AFFF45DAFBDE820
:1014C000F88F0000003C01404438024000300140E9
:1014D000000002400004024000080240000C0240EC
:1014E000001002400069084000D0012070474269A6
:1014F0004A40426170470AB1816170470904FBE7C5
:10150000014880687047000064000020024881683C
:101510000278114481607047640000200B4810B5C8
:10152000016841F400710160016841F4806101606B
:10153000016841F480710160032000F097F80020F9
:1015400000F006F800F024F8002010BD003C024036
:1015500070B50D4D04464FF47A712878B1FBF0F068
:101560000A490968B1FBF0F000F0C1FF48B9102C3E
:1015700007D200222146501E00F058F800206C606F
:1015800070BD012070BD00006400002070000020CC
:101590001F4808B5016841F480410160006800F40B
:1015A000804000901A48001F016841F0805101609E
:1015B000006800F080500090032000F057F80022EF
:1015C00011466FF00B0000F031F8002211466FF069
:1015D0000A0000F02BF8002211466FF0090000F01D
:1015E00025F800221146501F00F020F80022114675
:1015F000101F00F01BF800221146901E00F016F894
:101600000022BDE808401146501E00F00FB800004F
:101610004438024000F01F0201219140400980003F
:1016200000F1E020C0F8001170470000F0B40E4B4C
:101630001B680C46C3F30223C3F10705042D00D930
:101640000425191D072901D2002300E0DB1E012615
:1016500006FA05F1491E214099409E40761E16402B
:101660003143F0BC01F01EBF0CED00E0064900F074
:10167000070208684FF6FF03184040EA0220034AB9
:1016800010430860704700000CED00E00000FA0510
:101690000068416200207047F0B500680023446A8A
:1016A00031B1856A4FF4827604EB15444D1E0AE091
:1016B00044EA024181620FE006EB8307C7595B1CD5
:1016C00004EB1744DBB2AB42F6DB4FF4807303EB61
:1016D000810144EA024242500020F0BDD0F8EC0300
:1016E00002F020BEC1EBC10200EB8202D0F8EC0395
:1016F000526C02F08DBDC1EBC10200EB8202D0F84A
:10170000EC03D2F8042202F0D8BDD0F8EC0302F0CA
:101710000BBE10B504460A460B0601F07F00C0EB75
:10172000C00104EB810101D5383101E001F5FC7104
:101730000870D009487094F8B803012809D0012036
:1017400084F8B803206803F031F9002084F8B80366
:1017500010BD022010BD70B50A460446090602F00D
:101760007F0005D5C0EBC00104EB8101383105E0F5
:10177000C2EBC20104EB810101F5FC7100258D7003
:101780000870D009487094F8B803012809D00120E6
:1017900084F8B803206803F0EAFA84F8B85300200C
:1017A00070BD022070BD01F00F01C1EBC10100EB63
:1017B0008100B0F8100280B2704770B504460D4643
:1017C0000E0601F07F00C0EBC00104EB810101D5E2
:1017D000383101E001F5FC71ED0908704D708A6047
:1017E000CB7000D0C8800025022B00D10D7194F879
:1017F000B803012809D0012084F8B803206803F059
:1018000029F8284684F8B85370BD022070BD70B521
:101810000C4601F07F05C5EBC50100EB8101C1F865
:101820000C32C1F804220023C1F8103281F8F931DA
:1018300081F8F851036901F5FC71012B00D10A61AF
:101840006206027C006803D003F0F2FA002070BD4B
:1018500003F0CEF9FAE770B50D460446090605F027
:101860007F0005D5C0EBC00104EB8101383105E0F4
:10187000C5EBC50104EB810101F5FC7101228A7001
:101880000870E809487094F8B803012807D084F874
:10189000B823206803F09DFA680602D007E0022012
:1018A00070BD217C04F56F72206803F041FA0020BE
:1018B00084F8B80370BD70B50C4601F07F05C5EB28
:1018C000C50100EB8101CB644A6400230B65012351
:1018D00081F8393001F8385F0369012B00D10A61C2
:1018E0006206027C006803D003F0A2FA002070BDFB
:1018F00003F07EF9FAE700002DE9F84F044600688E
:101900000026054603F0E8FB002875D1206803F0A7
:101910000CFC002870D0206803F007FC800704D579
:101920002068416901F002014161206803F0FDFB7C
:10193000010304F56F704FF0010B4FF0000A0090A7
:101940004DD5206803F0D3FB074646E0F80742D0A8
:10195000F1B2206803F0E1FB8046C00728D005EB18
:101960004612C2F808BB2069012811D1C6EBC60097
:1019700004EB8001D2F8102BD1F80002C2F312025E
:10198000821AC1F81022D1F804221044C1F80402CE
:10199000F1B22046FFF7AFFE2069012808D13EB919
:1019A000D4F80C0220B920680121009A03F0C0F994
:1019B0005FEA087007D5204600F0DCFA05EB461117
:1019C0000820C1F8080B5FEAC86004D505EB461192
:1019D0001020C1F8080B7F08761C002FB6D12068B4
:1019E00003F0A3FB40034FF040095ED5206803F0ED
:1019F00077FB0746002656E0D2E1F80751D0F1B256
:101A0000206803F07BFB8046C00724D0D5F834283B
:101A10000BFA06F08243C5F8342805EB4610C0F8EF
:101A200008B92069012807D1C6EBC60004EB800085
:101A3000D0E9101211444164F1B22046FFF752FE82
:101A40002069012807D136B9E06C20B9206801214E
:101A5000009A03F06DF95FEA087004D505EB4611B2
:101A60000820C1F808095FEAC86004D505EB4611F3
:101A70001020C1F808095FEA486003D505EB46115C
:101A8000C1F808995FEA887004D505EB4611022079
:101A9000C1F808095FEA086003D53146204601F025
:101AA00017FD7F08761C002FA7D1206803F03DFBAF
:101AB00000280DDAD5F8040820F00100C5F8040864
:101AC000204600F03DFA2168486900F00040486176
:101AD000206803F02AFB00050BD5D5F80808C007DD
:101AE00002D0204600F062FA2068416901F40061EA
:101AF0004161206803F019FBC0044CD5D5F80408F7
:101B000020F00100C5F804081021206803F0B4FAA1
:101B10000020FF2107E000BF05EB4012C2F80819C2
:101B2000C2F8081B401C62688242F5D84FF0FF30B3
:101B3000C5F81808D5F81C0840F00110C5F81C08B5
:101B4000206B60B1D5F8840840F00B00C5F884081C
:101B5000D5F8440840F00B00C5F844080BE0D5F870
:101B6000140840F00B00C5F81408D5F8100840F030
:101B70000B00C5F81008D5F8000820F4FE60C5F881
:101B80000008217C2068009A03F0D2F82168486997
:101B900000F480504861206803F0C7FA80047DD5C6
:101BA000206802F097FE2068C16821F47051C1607E
:101BB000206803F073FA78B10320C4F81490E06051
:101BC00000F0A4FA7749784A014491420AD2206889
:101BD000C16841F4705158E04FF40070C4F80CA093
:101BE000606136E07149724A0144914204D2206832
:101BF000C16841F4605148E06E496F4A0144914226
:101C000004D22068C16841F450513EE06B496C4AEF
:101C10000144914204D22068C16841F4405134E04B
:101C20006849694A0144914204D22068C16841F47C
:101C300030512AE06549664A0144914204D2206845
:101C4000C16841F4205120E06249421862498A4249
:101C500004D22068C16841F4105116E05F49604A1F
:101C60000144914204D22068C16841F400510CE063
:101C70005C4908445C4988422068C16803D241F449
:101C8000E05102E00AE041F4C051C160204600F09A
:101C900047F92068416901F400514161206803F06F
:101CA00044FAC00636D52168886920F010008861A2
:101CB000D5F8208008F00F00C0EBC00004EB8007CF
:101CC000C8F3434007F5FC77022802D0062812D05B
:101CD0001BE047F6F07018EA000F16D0C8F30A129E
:101CE00090462846F96803F024FAF8684044F86002
:101CF000B869404408E008222846009903F019FA20
:101D0000B969C8F30A100844B8612068816941F0D4
:101D100010018161206803F008FA000707D520460A
:101D200000F012F92068416901F008014161206862
:101D300003F0FBF9C00208D5F1B2204600F056F8D6
:101D40002068416901F480114161206803F0EDF9D8
:101D5000800208D5F1B2204600F04CF820684169B5
:101D600001F400114161206803F0DFF9400007D55C
:101D70002046FFF7B3FC2068416901F080414161D2
:101D8000206803F0D2F940070AD520684568680743
:101D900002D52046FFF7B9FC20684168294341601D
:101DA000BDE8F88F405327FF00350C00401E1BFF95
:101DB00040420F0000DC0BFF804F1200808CF9FEC8
:101DC00020D6130060B6E5FE60E3160000D3CEFE19
:101DD00040771B00C05BB3FEC091210000CA91FE9A
:101DE00020753800E05459FEE09C4100D0F8EC0327
:101DF00002F0F8BAD0F8EC0302F0F6BAF0B58BB006
:101E000004004FF0000556D0032084F8B9032046A3
:101E100000F054F8206802F0E5FE04F110012822D9
:101E20000F466846FEF705FA94E80F0002F06CFDD5
:101E30000021206803F08DF901260020C5EBC501C3
:101E400004EB810181F8396001F8385FCD80C870FA
:101E50008860C8606D1C48610F2DEFD300214FF4DE
:101E6000827300BFC1EBC10204EB820203EB810568
:101E700082F8F90182F8F811D18782F8FB01C2F8E3
:101E80000002C2F80402C2F80C0222685051491C38
:101E90000F29E7D3282239466846FEF7CAF994E8A5
:101EA0000F0002F0FFFD84F8B963206802F0EEFD38
:101EB00000200BB0F0BD0120FBE7000000B500687A
:101EC00087B0B0F1A04F25D14FF4C0500090022050
:101ED000019000200290032003900A20049069469C
:101EE0000D48FFF73BFA0D48016841F080010160A1
:101EF0000A481030016841F4804101600068002206
:101F000000F48040059011464320FFF78FFB4320EB
:101F1000FFF780FB07B000BD0000024034380240EC
:101F200010B50446C068012100B90021D4F8EC03C3
:101F300002F0B0FAD4F8EC03BDE8104002F079BA30
:101F4000D0F8EC0302F094BAD0F8EC0302F096BAA1
:101F500010B5044690F8B803012809D0012084F890
:101F6000B803206803F00BF9002084F8B80310BD13
:101F7000022010BDD0F8EC2300F56F71104602F07E
:101F80009CBA10B5044690F8B80301280CD0012083
:101F900084F8B803206802F06DFD206803F056F85D
:101FA000002084F8B80310BD022010BD10B504460F
:101FB000D0F8EC0302F0CEFA2068D0F8001E41F011
:101FC0000101C0F8001E206A002804D00248016800
:101FD00041F00601016010BD10ED00E02DE9F04771
:101FE0000E46050065D0DFF81481D8F80000F7B27E
:101FF00000F00F00B04207D288F80070D8F8000057
:1020000000F00F00B04254D128683D4C810712D532
:10201000400703D5206840F4E0502060287800078E
:1020200003D5206840F4604020602068A96820F053
:10203000F000084320602878C0072DD03049686838
:102040000839012812D0022813D0032811D00968BA
:10205000890700292DDA216821F00301014321605D
:10206000FFF74EFA814641F2883A0EE0096889038B
:10207000EFE709688901ECE7FFF742FAA0EB0901F5
:10208000514502D90320BDE8F0872068696800F057
:102090000C00B0EB810FEFD1D8F80010404601F0F2
:1020A0000F01B14207D90770006800F00F00B0427D
:1020B00001D00120E7E72878400705D52068E968C6
:1020C00020F4E050084320602878000706D52068F7
:1020D000296920F4604040EAC100206000F03CF82B
:1020E0002168084AC1F30311515CC84006490860E1
:1020F0000020FFF72DFA0020C5E70000003C024059
:1021000008380240DA6200087000002001480068C8
:102110007047000070000020044805490068096805
:10212000044AC1F38221515CC8407047700000200E
:1021300008380240EA620008044805490068096856
:10214000044AC1F34231515CC8407047700000201E
:1021500008380240EA620008154810B5006810F01F
:102160000C02144813D04110042A0FD0082A0ED1B3
:102170000F4C241F2268236802F03F025B0207D540
:102180002068C0F38810A0FB010106E0084610BDDE
:102190002168C1F38811A1FB00010023FEF718F8A4
:1021A0002168C1F30141491C4900B0FBF1F010BDA9
:1021B000083802400024F4002DE9F84F050076D0DD
:1021C0002878DFF8F8B2BE4CC00749D0DBF8001021
:1021D0005846C1F38101012908D00068C0F381008D
:1021E00002280AD1201D0068400206D5206880031D
:1021F00036D568680028E2D032E06868B0F5803FE4
:1022000010D0B0F5A02F206810D020F480302060CE
:10221000206820F4802020606868A0B1FFF770F982
:1022200006460CE0206840F48030F4E740F480205B
:102230002060F7E7FFF764F9801B642873D82068F3
:102240008003F7D50CE0FFF75BF9064605E000BF19
:10225000FFF756F9801B6428F0D820688003F7D474
:102260002878DFF8608280074FF000093ED5DBF860
:102270000010584611F00C0F09D00068C0F381001F
:1022800002280BD18D48001F0068400206D4206848
:10229000800715D5E868012809D111E0E868B8B1D0
:1022A0000120C8F80000FFF72BF9064605E002E11F
:1022B000FFF726F9801B0228C0D820688007F7D5D1
:1022C0002068296920F0F80040EAC10020600DE094
:1022D000C8F80090FFF714F9064604E0FFF710F97C
:1022E000801B02281FD820688007F7D428780007B1
:1022F00022D5724E744869696C3671B10121016052
:10230000FFF7FEF8074604E0FFF7FAF8C01B0228C3
:1023100009D830688007F7D50EE0C0F80090FFF7C5
:10232000EFF8074605E083E0FFF7EAF8C01B022854
:102330007ED830688007F7D42878400768D5DFF862
:102340007CA100270AF1380ADAF80000C0000BD49B
:10235000DAF8001041F08051CAF80010DAF80000F5
:10236000012700F080500090584E3068C00510D40E
:10237000306840F480703060FFF7C2F8009005E0EC
:10238000FFF7BEF80099401A022851D83068C005FE
:10239000F6D54A4EA868683601280FD0052830685F
:1023A00010D020F001003060306820F00400306070
:1023B000A868B8B1FFF7A4F800900FE0306840F0CB
:1023C0000100F4E740F004003060F7E7FFF798F809
:1023D0000099411A41F28830814264D83068800700
:1023E000F4D50EE0FFF78CF8009007E0FFF788F8CF
:1023F0000099411A41F28830814254D830688007F0
:10240000F4D42FB1DAF8001021F08051CAF800108E
:10241000A869C0B3DBF80010C1F3810102294AD0DA
:102420000228484607D0C8F86000FFF769F800E0C6
:1024300039E005463AE04746C8F86000FFF760F823
:10244000064604E0FFF75CF8801B02282BD82068C2
:102450008001F7D4D5E907010843A96A1C4A490855
:1024600002EB01416A6A41EA8211084395F82C1097
:1024700040EA01611148001F016001203866FFF742
:102480003FF8054605E014E0FFF73AF8401B022844
:1024900009D820688001F7D50BE000BFFFF730F8BE
:1024A000401B022802D90320BDE8F88F2068800174
:1024B000F4D40020F8E70120F6E7000008380240D5
:1024C0000038024000004742800E47420070004042
:1024D0000000FFFF4FF0E0210428086903D020F03E
:1024E00004000861704740F00400FAE7704710B537
:1024F000401EB0F1807F01D3012010BD4FF0E024D9
:1025000060610F21601700F0CDFF0020A06107205F
:102510002061002010BD10B5FFF7E8FF10BD704727
:10252000704730B590F83820012A20D0012280F879
:102530003820022380F8393003685C6824F0700486
:102540005C6003685C680D682C435C6003689C6891
:1025500024F080049C6003689C6849680C439C607C
:1025600080F83920002180F83810084630BD02205C
:1025700030BD10B5040003D094F8390010B107E065
:10258000012010BD002084F83800204600F00CF82F
:10259000022084F83900211D206801F075F801201F
:1025A00084F83900002010BD08B501683048B1F149
:1025B000804F11D02F4A91421DD1016841F0020194
:1025C00001600068002200F00200009011461D200A
:1025D000FFF72CF81D2045E0016841F00101016082
:1025E0000068002200F00100009011461C20FFF757
:1025F0001DF81C2036E0204A91420ED1016841F0BE
:10260000040101600068002200F0040000901146FF
:102610001E20FFF70BF81E2024E0184A91420ED12D
:10262000016841F0080101600068002200F0080024
:10263000009011463220FEF7F9FF322012E01048D8
:10264000814213D10A48001D016841F480310160C4
:102650000068002200F48030009011461820FEF738
:10266000E5FF1820BDE80840FEF7D4BF08BD000014
:10267000403802400004004000080040000C0040C8
:10268000004001400168CA6842F00102CA60006867
:10269000016841F00101016000207047022180F8CB
:1026A000391001680A6A41F211131A4207D10A6A05
:1026B0009B101A4203D10A6822F001020A6001212C
:1026C00080F839100020704770B5044690F8380043
:1026D000012817D0012584F83850022084F83900E9
:1026E0002068826822F0770222F47F4282600868C4
:1026F000502837D00DDC202859D005DC88B31028AD
:1027000041D151E0022070BD302853D040283AD149
:102710003FE060282ED070280BD0B0F5805F03D04A
:10272000B0F5005F2FD110E02068816821F007012B
:1027300015E0CB68D1E90121206800F0F8FF21689D
:10274000886840F0770088601DE0CB68D1E90121FE
:10275000206800F0ECFF2068816841F480418160CE
:1027600011E01EE0CA684968206801F095F8502120
:10277000206806E0CA684968206801F09EF8602178
:10278000206800F0DEFF84F83950002084F838001B
:1027900070BDCA684968206801F07EF84021206851
:1027A000EFE700212068ECE710212068E9E720210D
:1027B0002068E6E730212068E3E7704770B50446FB
:1027C000006801694FF00005C943890715D4C16845
:1027D000C943890711D4E91E0161012020762068D0
:1027E00080698007204602D0FFF7E7FF04E000F091
:1027F000CBF8204600F04EF9257620680169C943E0
:10280000490717D4C168C943490713D46FF00401BD
:102810000161022020762068806910F4407F204604
:1028200002D0FFF7CAFF04E000F0AEF8204600F047
:1028300031F9257620680169C943090716D4C168B2
:10284000C943090712D46FF0080101610420207602
:102850002068C0698007204602D0FFF7AEFF04E081
:1028600000F092F8204600F015F9257620680169FD
:10287000C943C90617D4C168C943C90613D46FF048
:1028800010010161082020762068C06910F4407FA3
:10289000204602D0FFF791FF04E000F075F82046D3
:1028A00000F0F8F8257620680169C943C90708D106
:1028B000C168C943C90704D1891E0161204600F0DF
:1028C000E1F920680169C943090609D4C168C9430F
:1028D000090605D46FF0800101612046FFF71FFE55
:1028E00020680169C943490609D4C168C94349063A
:1028F00005D46FF040010161204600F013FA206812
:102900000169C94389060BD4C168C943890607D444
:102910006FF0200101612046BDE87040FFF700BE66
:1029200070BD000030B50368002102220124124866
:1029300085B0B3F1804F0DD0104DAB4211D1009452
:10294000CDE90121CDE9031269460D48FEF706FDE8
:1029500005B030BD20230093CDE90121CDE903145A
:1029600008E0084CA342F3D104230093CDE90121F0
:10297000CDE903126946E9E7000002400004004087
:1029800000040240000C0040704770B5044690F807
:1029900038000D4601280DD0012684F83860022049
:1029A00084F8390042B1042A18D0082A2AD00C2A07
:1029B0004DD139E0022070BD206800F0CBFE2068C8
:1029C000816941F0080181612068816921F0040179
:1029D0008161206881692A69114311E0206800F053
:1029E000E1FE2068816941F40061816120688169AC
:1029F00021F480618161206881692A6941EA0221AC
:102A0000816124E0206800F0F9FE2068C16941F08E
:102A10000801C1612068C16921F00401C161206819
:102A2000C1692A69114311E0206800F013FF206892
:102A3000C16941F40061C1612068C16921F480610C
:102A4000C1612068C1692A6941EA0221C16184F833
:102A50003960002084F8380070BD10B5040003D040
:102A600094F8390010B107E0012010BD002084F86F
:102A70003800204600F00CF8022084F83900211DAF
:102A8000206800F001FE012084F83900002010BD0C
:102A900070470000F8B543490068434E0968434C4D
:102AA000434D884207D1706810B1401E70601FE02E
:102AB00008213C481AE03B49B4390968884208D1EA
:102AC000606810B1401E606012E036480021B438E2
:102AD0000CE0344978390968884209D1686810B136
:102AE000401E686004E02F480821783800F0A0F804
:102AF0007068002854D16068002851D168680028A7
:102B00004ED12C4F4FF0080138780028254827D0A7
:102B100000F08EF823480021B43800F089F82148ED
:102B20000821783800F084F82348016802290DD084
:102B3000042910D0062933D101210160002038700A
:102B40001E480221BDE8F840FEF770B9032101607C
:102B500002211B48F6E70521016002211948F1E72F
:102B600000F066F80F480021B43800F061F80D4815
:102B70000821783800F05CF80A483C38FFF78EFDF1
:102B80004FF480511048FEF7B2FC104800906B687B
:102B9000626846207168FEF75FF914210B48D1E79F
:102BA000F8BD00008402002098010020A40100204C
:102BB000B0010020080000201000002018000020B4
:102BC0001400002016000020000C0240BC01002070
:102BD00010B50268044631B1042908D008291DD077
:102BE0000C2908D11EE0D06840F0020002E0D06855
:102BF00040F00400D0600122206800F08DFD0B49F8
:102C00002068884203D1416C41F40041416420684E
:102C1000016841F001010160002010BDD06840F062
:102C20000800E7E7D06840F01000E3E7000001404B
:102C300010B504460068002200F06EFD104B41F212
:102C4000111120688A10984209D1036A0B4206D1FB
:102C5000036A134203D1436C23F4004343642068A6
:102C6000036A0B4206D1016A114203D1016821F0C7
:102C700001010160012084F83900002010BD00002E
:102C80000000014038B51E4900680968884215D126
:102C90004FF400411B48FEF72AFC1B4800901B48DC
:102CA00043681B4842681B4841684620FEF7D4F839
:102CB000BDE8384014211448FEF7B8B810497831FF
:102CC0000968884214D114480078002810D0134CA9
:102CD0002078401CC1B212482170012909D000227D
:102CE0008021FEF708FC20780F2801D100202070F9
:102CF00038BDBDE8384001228021FEF7FCBB000052
:102D000048020020000C0240BC010020B00100205D
:102D1000A4010020980100201A0000201B000020C0
:102D2000000802407047704770B50268044610689A
:102D3000D168536910F00F0F50D003F0010501F472
:102D4000907635435DD0C20705D0CA0503D5E26B46
:102D500042F00102E263420705D5DA0703D0E26BD5
:102D600042F00202E263820705D5DA0703D0E26B84
:102D700042F00402E263020705D5DA0703D0E26BF2
:102D800042F00802E263E26B002A33D0800604D5E9
:102D9000880602D5204600F0B8FD20684069E16B46
:102DA000C0F38010090700D428B3204600F09FFD2F
:102DB0002068416949061AD5416921F04001416105
:102DC000606BA0B11B490165606BFEF768F90028D4
:102DD00010D0606B016DBDE870400847830610D5C8
:102DE0008B060ED52046BDE8704000F08EBD204613
:102DF000FFF799FF70BD2046FFF795FF0020E063C5
:102E000070BD030606D50B0604D52046BDE870400C
:102E100000F018BF4006F3D54806F1D5D16820462A
:102E200021F04001D160202184F8391000F0ABF886
:102E300070BD0000DF38000870B5040004D094F8BD
:102E40003900002510B106E0012070BD84F838502B
:102E5000204600F023F8242084F839002068C16857
:102E600021F40051C160204600F096FD2068016900
:102E700021F4904101612068416921F02A014161FA
:102E80002068C16841F40051C160E563202084F8E6
:102E9000390084F83A00002070BD00002DE9F043AD
:102EA000064600682E4987B0884256D12D48002535
:102EB000016841F0100101600068694600F01000EF
:102EC00005904FF4C0600090022001900120029014
:102ED00003200390072004902348FEF73FFA244C78
:102EE00022484FF000672060C4E901754FF4806804
:102EF000C4E903584FF480796561C4E90659256235
:102F000020466562FEF7AEF918B1792119A002F0EA
:102F10005CF97463A663164C144860347830E4E8B6
:102F200002074020A4E82101114844F814596030F8
:102F3000C4E9065925626562FEF794F918B18B2140
:102F40000CA002F042F93463002211462520A6634A
:102F5000FEF76CFB2520FEF75DFB07B0BDE8F083B4
:102F6000001001404438024000000240406402402A
:102F70003C0300202E2E2F5372632F7573617274E1
:102F80002E63000070477047FEE700000D4808B54B
:102F9000016841F4800101600068002200F48000B3
:102FA000009011463A20FEF741FB3A20FEF732FB33
:102FB000002211464620FEF739FBBDE808404620B6
:102FC000FEF728BB303802402DE9F04F4E4887B05D
:102FD0000024016841F080010160016801F0800176
:102FE0000591016841F004010160016801F00401EC
:102FF0000591016841F001010160016801F00101E2
:103000000591016841F002010160016801F00201CF
:103010000591016841F010010160016801F01001A3
:103020000591016841F0080101600068DFF8DC905B
:1030300000F008000590002285214846FEF75BFA63
:10304000DFF8CCA0002288215046FEF754FA4FF456
:103050004376002231462F48FEF74DFADFF8B8B02C
:103060004FF40047002239465846FEF744FA4FF223
:103070001128002241462948FEF73DFA852000909C
:103080000125CDE90154694648460394FEF766F9E7
:10309000CDE90054694650460294FEF75FF9882056
:1030A0000090CDE90154694650460394FEF756F965
:1030B0000096CDE90154694616480394FEF74EF98F
:1030C0000097CDE90154694658460394FEF746F946
:1030D000CDF80080CDE90154694610480394FEF70D
:1030E0003DF94420CDE9000469460C480294FEF7FE
:1030F00035F92020CDE90004694606480294FEF720
:103100002DF907B0BDE8F08F3038024000080240CA
:10311000000002400004024000100240000C024087
:1031200010B523488EB04FF0804101605F2100242C
:10313000C0E901141F490968C0E90314FFF719FA2F
:1031400018B182211CA002F040F84FF48050079083
:1031500007A91748FFF7B8FA18B1882116A002F09E
:1031600034F81348FFF779FC18B18D2112A002F052
:103170002CF80B940BA90E480C94FFF7D2F918B158
:1031800094210DA002F021F86020CDE90004029402
:103190000022694606480494FFF7F7FB18B19D2109
:1031A00005A002F012F80248FFF7BCFB0EB010BDFC
:1031B000D0010020A40100202E2E2F5372632F7403
:1031C000696D2E630000000010B524488EB02249BE
:1031D00001605F210024C0E9011421490968C0E9A8
:1031E0000314FFF7C6F918B1B1211EA001F0EDFFDD
:1031F0004FF48050079007A91848FFF765FA18B1F7
:10320000B72118A001F0E1FF1448FFF726FC18B120
:10321000BC2114A001F0D9FF0B940BA90F480C940A
:10322000FFF77FF918B1C3210EA001F0CEFF602097
:10323000CDE9000402940822694608480494FFF787
:10324000A4FB18B1CC2107A001F0BFFF0348FFF792
:1032500069FB0EB010BD0000000400400C0200200D
:10326000B00100202E2E2F5372632F74696D2E63D0
:103270000000000010B5184886B01649016042F2FF
:103280007F510024C0E9011440F2E731C0E9031482
:10329000FFF76FF918B1DF2110A001F096FF4FF48E
:1032A0008050009069460C48FFF70EFA18B1E521EE
:1032B0000AA001F08AFF049404A907480594FFF7C7
:1032C00030F9002803D0EC2104A001F07EFF06B005
:1032D00010BD000000080040480200202E2E2F5391
:1032E00072632F74696D2E630000000010B52648CC
:1032F0008EB0244901605F210024C0E901142349F4
:103300000968C0E90314FFF734F918B1FE2120A0C1
:1033100001F05BFF4FF48050079007A91A48FFF7B0
:10332000D3F920B14FF4827119A001F04EFF164875
:10333000FFF793FB20B140F2091115A001F045FF02
:103340000B940BA910480C94FFF7EBF820B14FF445
:1033500088710FA001F039FF6020CDE900040294CC
:103360000822694608480494FFF70FFB20B140F299
:10337000191107A001F029FF0348FFF7D3FA0EB097
:1033800010BD0000000C00408402002098010020C5
:103390002E2E2F5372632F74696D2E630000000070
:1033A00010B5194886B01749016042F27F510024D8
:1033B000C0E9011440F2E731C0E90314FFF7D9F87E
:1033C00020B140F22D1111A001F0FFFE4FF480500A
:1033D000009069460C48FFF777F920B140F23311AD
:1033E0000AA001F0F2FE049404A907480594FFF72F
:1033F00098F8002804D04FF49D7104A001F0E5FE78
:1034000006B010BD00400140C00200202E2E2F53F8
:1034100072632F74696D2E63000000000D4810B5B3
:103420000B4901604FF4E1314160002181600C22C1
:10343000C160C0E904128161C161FFF7FDFC002891
:1034400005D0BDE810404F2103A001F0BEBE10BD65
:1034500000100140FC0200202E2E2F5372632F75A6
:10346000736172742E63000010B500220849094888
:1034700000F099FE0849074801F099F80749054806
:1034800000F0DAFCBDE81040024801F0DDB80000B1
:103490001C000020FC0300205401002050000020EC
:1034A000FEE770470907090E002806DA00F00F0052
:1034B00000F1E02080F8141D704700F1E02080F852
:1034C000001470470148FEF717BA000020060020DC
:1034D0002DE9F84F0F46C1EBC70100EB810582468D
:1034E0000668D5E91301441A286C3835A04200D289
:1034F0000446E01C4FEA900806EB471916E0441A10
:10350000A868A04200D20446E01C4FEA90089AF84E
:1035100010000090A3B2FAB23046E96801F040FE14
:10352000E8682044E860A8692044A861D9F818092F
:1035300080B2404505D9D5E90501814201D2002874
:10354000DDD134B90120D6F83418B8408143C6F82B
:1035500034180020BDE8F88F7047704710B5FDF7AC
:10356000D5FFBDE81040FEF7D6BF000030B52348B8
:1035700093B00025016841F080510160006800F0BF
:10358000805011901E48016841F44041016000687C
:10359000022400F4404011900120009000040190AA
:1035A0008001CDE9064008AA0420602182E81300CA
:1035B0000B906846FEF700FE00B1FEE70CA90F2055
:1035C00081E831004FF480500F90109003210CA837
:1035D000FEF704FD00B1FEE7FEF798FD4FF47A71A7
:1035E000B0FBF1F0FEF783FF0420FEF773FF00222B
:1035F0001146501EFEF71AF813B030BD4038024095
:10360000007000401048016841F4700101600F48EB
:10361000016841F0010101600C4A0021083211608B
:1036200002680B4B1A400260031D0A4A1A600268C6
:1036300022F48022026005480C30016002495806DD
:10364000803908607047000088ED00E000380240D3
:10365000FFFFF6FE103000240148FFF7AFB800006E
:10366000D00100200148FFF7A9B800000C0200209B
:103670000148FFF7A3B80000480200200148FFF707
:103680009DB8000084020020F0B502681B4B1C4C62
:103690009F031C4D1C4E984207D0B84205D0A04253
:1036A00003D0A84201D0B04204D122F0700C4A6885
:1036B00042EA0C02984210D0B8420ED0A0420CD080
:1036C000A8420AD0B04208D0104CA04205D0104CFD
:1036D000A04202D00F4CA04203D122F44074CA6829
:1036E000224302608A68C2620A688262984201D1FB
:1036F0000969016301214161F0BD00000000014042
:103700000004004000080040000C00400040014060
:10371000004401400048014010B50123046A8B4079
:103720009C430462036A8A401343036210BD10B5D0
:10373000846842EA032224F47F440A4322438260DD
:1037400010BD826822F070020A4342F007018160D6
:103750007047000030B5026A22F001020262026A7C
:103760004368846924F073050C682C4322F0020539
:103770008A682A430A4DA8420BD122F00805CA687C
:1037800023F440732A434D6922F004021D438B69E0
:103790002B434360846149684163026230BD00008D
:1037A0000000014030B5026A22F010020262026A93
:1037B000436884690D6824F4E64444EA05248D686E
:1037C00022F0200242EA05120B4DA8420ED1CD682C
:1037D00022F0800242EA05124D6923F4406343EA75
:1037E00085038D6922F0400243EA850343608461CA
:1037F00049688163026230BD0000014030B5026A51
:1038000022F480720262036A4268C46923F400737E
:1038100024F073050C682C438D6843EA05230C4D96
:10382000A8420ED1CD6823F4006343EA05234D6915
:1038300022F4405242EA05128D6923F4806342EA81
:1038400005124260C4614968C163036230BD000073
:103850000000014030B5026A22F480520262046A1C
:103860004268C3690D6823F4E64343EA05238D6883
:1038700024F4005444EA0534064DA84204D14D69AD
:1038800022F4804242EA85124260C36149680164C1
:10389000046230BD0000014010B5036A046A24F0E0
:1038A00001040462846924F0F00444EA021423F061
:1038B0000A020A438461026210BD10B5036A23F054
:1038C000100303628369046A23F4704343EA0232FB
:1038D00024F0A00343EA01118261016210BD10B51A
:1038E000806B0021C185C184FFF71DFA10BD0168FE
:1038F000CA6822F49072CA6001684A6922F0010223
:103900004A61202180F83A10704710B590F83A10BB
:10391000222901D0022010BD8168B1F5805F11D04D
:103920000169002901681FD0496801F07F03816A9D
:103930004A1C82620B70C18D491E0904090CC185A5
:1039400018D026E00269816A002A0268526805D010
:10395000D2B20A80816A491C8162ECE7C2F3080294
:103960000A80816A891CF7E74A68816A4B1C836276
:103970000A70E0E70168CA6822F49072CA600168C0
:103980004A6922F001024A61202180F83A10FFF7CB
:10399000F9FA002010BD00002DE9F041044600684E
:1039A000016921F44052E168114301612168C8684E
:1039B00049F20C6290432369A268E5691A4363697E
:1039C0002B431A430243CA602168486920F44072BD
:1039D000A06910434861E1696425B1F5004F97483B
:1039E000974A21684FF032083FD0914201D081427E
:1039F0007CD1FEF7A1FB00EBC00101EB0010616878
:103A00008900B0FBF1F6FEF797FB00EBC00101EB7C
:103A1000001061688900B0FBF1F0B0FBF5F06FF0C9
:103A20001801484306EB800108EB0110B0FBF5F0EC
:103A300000F0F006FEF780FB00EBC00101EB001088
:103A400061688900B0FBF1F0B0FBF5F006EB001601
:103A5000FEF772FB00EBC00101EB0010616889000A
:103A6000B0FBF1F7FEF768FBD2E0914201D0814252
:103A70003DD1FEF761FB00EBC00101EB0010616876
:103A80004900B0FBF1F0B0FBF5F00601FEF754FB86
:103A900000EBC00101EB001061684900B0FBF1F7D9
:103AA000FEF74AFB00EBC00101EB00106168490022
:103AB000B0FBF1F0B0FBF5F06FF01801484307EBF5
:103AC000800108EBC100B0FBF5F000F0F80006EB58
:103AD0004006FEF731FB00EBC00101EB001061680E
:103AE0004900B0FBF1F7FEF727FB3CE055E0FEF79D
:103AF00013FB00EBC00101EB001061684900B0FB53
:103B0000F1F0B0FBF5F00601FEF706FB00EBC0019B
:103B100001EB001061684900B0FBF1F7FEF7FCFA19
:103B200000EBC00101EB001061684900B0FBF1F04F
:103B3000B0FBF5F06FF01801484307EB800108EB8C
:103B4000C100B0FBF5F000F0F80006EB4006FEF710
:103B5000E3FA00EBC00101EB001061684900B0FB23
:103B6000F1F7FEF7D9FA00EBC00101EB0010616834
:103B70004900B0FBF1F0B0FBF5F06FF018014843DD
:103B800007EB800108EBC100B0FBF5F000F0070087
:103B9000216830448860BDE8F081FEF7BDFA00EB93
:103BA000C00101EB001061688900B0FBF1F6FEF77F
:103BB000B3FA00EBC00101EB001061688900B0FBB3
:103BC000F1F0B0FBF5F06FF01801484306EB80010F
:103BD00008EB0110B0FBF5F000F0F006FEF79CFAE0
:103BE00000EBC00101EB001061688900B0FBF1F04F
:103BF000B0FBF5F006EB0016FEF78EFA00EBC00105
:103C000001EB001061688900B0FBF1F7FEF784FA60
:103C100000EBC00101EB001061688900B0FBF1F01E
:103C2000B0FBF5F06FF01801484307EB800108EB9B
:103C30000110B0FBF5F000F00F00A9E700140140FF
:103C40000010014090F83910212901D0022070475E
:103C50008168B1F5805F016A0BD04A1C026202687C
:103C600009785160C18C491E0904090CC1840ED029
:103C700017E009880268C1F3080151600169002951
:103C8000016A02D0491C0162ECE7891CFBE701686C
:103C9000CA6822F08002CA600068C16841F0400131
:103CA000C1600020704700000148FFF73DB80000E8
:103CB000FC020020D0F8180220B10021C0F8141234
:103CC000084670470220704770B50546D0F8184284
:103CD00000F035FBC4F80C02D5F8180248B1D5F84D
:103CE0001C12D4F80402CA6804F50371904700203E
:103CF00070BD022070BD70B504460025812100F022
:103D000077FA0121204600F073FA8221204600F064
:103D10006FFAD4F8180250B1D4F81C0204F50674F6
:103D200040688047206802F085F90020206028461E
:103D300070BD10B5D0E9864159B194F80002FF2852
:103D400007D08B6894F8012221469847FF2084F819
:103D50000002002010BD00000A21018000487047C9
:103D60007C0000204321018000487047CC000020E7
:103D700043210180004870478800002043210180D2
:103D800000487047100100202DE9F0410446007CF6
:103D900000254FF4007670B3402302228121204693
:103DA00000F024FB402302220121204600F01EFBEC
:103DB000082303228221204600F018FB4FF40770ED
:103DC00002F01AFAC4F81802F0B10746D4F81C023F
:103DD000006880470020C7F81402C7F81802207C4A
:103DE000D7F8042290B140230121204600F011FBB6
:103DF0002846BDE8F081FFE73346022281212046B4
:103E000000F0F4FA3346CEE70125F1E73346EBE75D
:103E100010B5D0F8181269B1027C002AD1F804223A
:103E200005D04023012100F0F4FA002010BD4FF42A
:103E30000073F7E7022010BD02460220002902D0DD
:103E40000020C2F81C127047D0F81802C0F8041203
:103E500000207047D0F81802C0F81022C0F80812ED
:103E60000020704770B50646D0F8185208780C4606
:103E700010F0600121D0202927D1E288AAB10006E4
:103E8000607807D5D6F81C128B6829469847E288D7
:103E9000294617E085F80002A07985F80102E2883A
:103EA0002946304600F050F80FE0D6F81C12607832
:103EB00000228B682146984707E060780A2804D1E1
:103EC00003490122304600F059F8002070BD00007F
:103ED0007800002010B5D0F8181289B1D1F814225A
:103EE0000AB1012010BD0122C1F81422B1F810223C
:103EF00093B2D1F80822812100F035FB002010BDDB
:103F0000022010BD10B5D0F814225268904700204E
:103F100010BD134610B50A46002100F07AFA0020C1
:103F200010BD134610B50A46002100F01CFB00200E
:103F300010BD10B50446802100F0ECFA2046BDE823
:103F40001040002100F0E6BA10B50323C0F80821A4
:103F5000C0F8F431C0F80C2113460A46002100F0E5
:103F600058FA002010BD10B505210023C0F8F41147
:103F70001A46194600F04DFA002010BD10B5022374
:103F80008261C0F8F431C26113460A46002100F094
:103F9000EAFA002010BD10B504210023C0F8F41186
:103FA0001A46194600F0DFFA002010BD10B50A4687
:103FB000024903A000F0D4F8004810BD100A002008
:103FC00043444320436F6E666967000012200880F7
:103FD000004870473C00002010B50A46024903A083
:103FE00000F0BEF8004810BD100A002043444320F2
:103FF000496E746572666163650000000420088084
:10400000004870473800002010B50A46024903A056
:1040100000F0A6F8004810BD100A002053544D6966
:1040200063726F656C656374726F6E6963730000B1
:1040300010B50A46024903A000F092F8004810BDEE
:10404000100A002053544D33322056697274756142
:104050006C20436F6D506F727400000010B50A46FB
:10406000024903A000F07CF8004810BD100A0020AF
:1040700030303030303030303030314100000000EE
:10408000F8B5044648880D46010A08294BD2DFE8F6
:1040900001F04A0409174A4A4048D4F81012207C1B
:1040A0000A6832E0207C02260028D4F8140205D0E9
:1040B000C16A684688470146467041E0816AF8E770
:1040C000C0B206282FD2DFE800F003080D12171C3B
:1040D000D4F81012207C4A6817E0D4F81012207C23
:1040E0008A6812E0D4F81012207CCA680DE0D4F877
:1040F0001012207C0A6908E0D4F81012207C4A696A
:1041000003E0D4F81012207C8A6969469047014682
:1041100016E0207C38B9D4F81402416B6846884711
:10412000F5E7207C20B129462046FFF702FFF8BDC5
:10413000D4F81402016B684688470146072048708E
:10414000BDF800000028F2D0EA88002AEFD08242B1
:1041500000D90246ADF800202046FFF70FFFF8BD5A
:1041600070B5002300281DD00446002502E06D1C18
:10417000EDB2641C2678002EF9D1022404EB45042C
:104180001480CC545B1C0322CA5400245B1C06E040
:10419000CA545B1CDAB28C54521CD3B2401C027855
:1041A000002AF5D170BD10B580B1D0F8143213B12A
:1041B0000023C0F8143209B1C0F81012012180F8B0
:1041C000FC11027000F0C0F8002010BD022010BDEC
:1041D00010B50024D0F82002FDF7BDFA30B1012857
:1041E00001D0022801D0022400E00124204610BDA5
:1041F00010B50024D0F82002FDF78BFA30B1012869
:1042000001D0022801D0022400E00124204610BD84
:104210002DE9F0411746044641B1D4F81402426931
:104220008AB394F8FC01032842D043E0D4F8F41197
:10423000002504F11400022933D1D0E902639E4223
:1042400007D9F31A83609AB239462046FFF769FE10
:1042500012E04068B0FBF3F103FB1101A1B99842F1
:1042600012D3D4F8F81188420ED20022114620460B
:10427000FFF757FEC4F8F85100231A4619462046A6
:1042800000F0C7F80DE012E0D4F81402C16829B1BB
:1042900094F8FC01032801D1204688472046FFF707
:1042A00062FE94F80002012804D184F8005201E073
:1042B000204690470020BDE8F08170B515460446C1
:1042C00041B1D4F8140282693AB394F8FC0103288E
:1042D00024D025E0D4F8F41104F5827003291FD10D
:1042E000D0E902218A420BD9531A836008468342DF
:1042F00000D303469AB229462046FFF70AFE0FE094
:10430000D4F81402016929B194F8FC01032801D101
:10431000204688472046FFF73EFE01E020469047B2
:10432000002070BD0020704710B5012180F8FC11FD
:10433000D0F81422017952689047002010BDD0F8BF
:104340002002FDF730BA000010B5017859BB1749BB
:104350000222C1F8EC03C0F820124FF0A040086020
:10436000042048600020C1E90320C1E90502C861BA
:1043700008624862C86208630846FDF73FFD20B145
:104380004FF4A5710AA000F020FF80210748FDF737
:104390007FF9402200210548FDF77EF980220121A6
:1043A0000248FDF779F9002010BD0000200600202A
:1043B0002E2E2F5372632F757362645F636F6E6668
:1043C0002E6300000A0601F07F01D0F82002C1EB45
:1043D000C10100EB810002D590F83A00704790F8D7
:1043E000FA017047002070470020704770B51D46E5
:1043F00013460024D0F820022A46FDF7DEF930B13A
:10440000012801D0022801D0022400E00124204626
:1044100070BD10B50024D0F82002FDF7F8F930B1D6
:10442000012801D0022801D0022400E00124204606
:1044300010BD70B50022044640231146FFF7D6FF99
:1044400040252B46002280212046C4F81051FFF75A
:10445000CDFF0120256284F8FC01D4F8180228B1B0
:10446000D4F814022179426820469047002070BD9C
:1044700090F8FD1180F8FC110020704710B590F8FD
:10448000FC11032904D1D0F81412C96901B188477D
:10449000002010BD01740020704710B50024D0F832
:1044A0002002FDF755FD30B1012801D0022801D0CE
:1044B000022400E00124204610BD70B5044600F53A
:1044C0000270054600F05FF80120C4F8F401B4F86A
:1044D0000E02C4F8F80194F8080210F01F010AD087
:1044E00001290DD0022910D000F08001204600F0F3
:1044F00011F8002070BD2946204600F0AAF8F8E720
:104500002946204600F08CF9F3E72946204600F0C2
:1045100019F9EEE710B50024D0F82002FDF79BF959
:1045200030B1012801D0022801D0022400E001248A
:10453000204610BD10B50024D0F82002FDF721FD63
:1045400030B1012801D0022801D0022400E001246A
:10455000204610BD90F8FC1180F8FD11042180F870
:10456000FC110020704710B50024D0F82002FDF7A0
:10457000A2F930B1012801D0022801D0022400E0C4
:104580000124204610BD0A7802704A7842708A7869
:10459000CB7802EB032242800A794B7902EB0322AB
:1045A00082808A79C97902EB0121C1807047024675
:1045B000002011B1C2F8141270470220704710B5E4
:1045C000D0F8142202241AB11268904700B90024CE
:1045D000204610BD70B50E461A4D897804462970E4
:1045E000012928D894F8FC01022802D0032822D1FE
:1045F00005E099B10320616084F8FC0109E091B104
:10460000606888420AD0C1B22046FFF77BFC297857
:1046100061602046FFF7D3FF02280CD02046BDE89A
:104620007040FFF7B8BC022084F8FC0120466160AE
:10463000FFF768FCF2E731462046BDE87040FFF71F
:1046400078BC00007400002010B5FFF773FF002055
:1046500010BD2DE9F04100264B78012532460A2B8A
:1046600043D2DFE803F03C584251420805422A2772
:10467000FFF706FD63E004468888C8B9C888B8B962
:10468000887800F07F0794F8FC01032810D084F8A4
:10469000FE7139462046FFF700FF2046FFF77BFCFE
:1046A0001FB1022084F8FC0149E084F8FC5146E087
:1046B00020461AE0FFF78EFF41E0CB88012B14D192
:1046C00090F8FC31022B02D0032B0ED104E0826063
:1046D000012200F1080114E00122011D11E090F80F
:1046E000FC21022A04D0032A02D0FFF722FC26E094
:1046F000C560D0F8041209B10321C160022200F1A3
:104700000C01FFF73BFC1AE004464888012816D14B
:10471000C4F804520BE0044690F8FC01022801D0D2
:104720000328C5D14888012809D1C4F80422D4F847
:1047300014028268204690472046FFF72CFC304642
:10474000BDE8F08170B50D46044628780026097949
:10475000C0F34110012806D06878A0B301281FD00B
:1047600003283FD107E0D4F8140229468268204686
:104770009047002070BD94F8FC01022817D0032850
:104780002CD1688828B921B1802902D02046FFF7B2
:10479000C1FED4F81402294682682046904713E0EF
:1047A00094F8FC01022802D0032817D103E0C9B114
:1047B00080291BD116E06888A0B9480604D020469D
:1047C000FFF706FDE5E703E02046FFF7E4FB09E01D
:1047D00094F8FC01022807D003280BD02946204674
:1047E000FFF7A7FB304670BD4806FBD02046FFF719
:1047F00091FEF7E7080601F07F0004EB001501D5F4
:10480000143501E005F582752046FFF7DBFD00B1A8
:1048100001202860022229462046FFF7AFFBE1E78E
:1048200070B5054690F8FC010C4603280DD120799F
:1048300001280AD8D5F81402826828469047E088F3
:1048400030B92846FFF7A7FB02E02846FFF771FBC7
:10485000002070BD30B54C781D4B01220D78AA4068
:10486000012CD0F81C4818D044EA0242C0F81C2899
:104870000A7800EB4210D0F8002B12040BD4D0F8C9
:10488000002B0C89C4F30A042243C97843EA81410E
:104890000A43C0F8002B002030BD92B21443C0F888
:1048A0001C480C7800EB4410D0F800291204F2D414
:1048B000D0F800290D89C5F30A052A43C97889046F
:1048C00041EA84510A431A43C0F80029E3E7000093
:1048D00000800010D0F800196FF30A01C0F8001929
:1048E000D0F80818C1F34101022905D1D0F8001908
:1048F00041F00301C0F80019D0F8041841F48071A8
:10490000C0F804180020704770B50446049D06994D
:104910000D9801290CD0E06840F04000E06020468E
:1049200000F028F84FF48030A063012D16D01DE070
:10493000A16B21F48031A163E1680D4A1140E1606F
:10494000E16821F44011E160012803D1E06840F4FE
:104950008010E060204600F00DF8E6E7A06840F027
:104960000600A060A06840F02000A060002070BD9C
:10497000BFFFBDFF01220C4902E0521C8A420BD846
:104980000369002BF9DA026942F001020261012297
:1049900004E0521C8A4201D9032070470369DB07F7
:1049A000F7D1002070470000400D0300F0B50D4620
:1049B00004464F780126F206D3002D49287804EBEF
:1049C0004010012F14D0D0F8007B27F40047C0F826
:1049D000007B287804EB4010C0F8002B287804EB0B
:1049E0004010C0F8003B01202A7804EB42122BE073
:1049F000D0F8007927F40047C0F80079287804EB54
:104A00004010C0F80029287804EB4010C0F80039A5
:104A100001202A7804EB421202E0401C884211D89F
:104A2000D2F808395B00F8D41021204600F024FBAE
:104A3000D4F81C0829788E40B1B2884314E0401C99
:104A4000884201D90320F0BDD2F8083BDB06F6D43A
:104A5000D4F8040840F48060C4F80408D4F81C08B2
:104A600029788E4020EA0640C4F81C080020F0BDDA
:104A7000400D030010B5D0F8041821F00201C0F871
:104A800004180320FCF758FC002010BD10B5D0F826
:104A9000041841F00201C0F804180320FCF74CFC94
:104AA000002010BD2DE9F0470E460446DDE90A0A54
:104AB0000025DDF83C80089F5FEA0801A16B11D05A
:104AC00041F40021A1634FF00009C4F8009ED4F81E
:104AD0000018C4F80018012807D0D4F8000840F0E6
:104AE000030007E041F40011ECE7D4F800080BB133
:104AF00040F00100C4F800081021204600F0BCFA84
:104B0000204600F0A9FA4846C4F81098C4F8149852
:104B10004FF0FF31C4F81818C4F81C984FF0904CAF
:104B2000FF230FE004EB4511D1F80029002A02DA37
:104B3000C1F800C901E0C1F80009C1F81009C1F8C5
:104B400008396D1CAE42EDD800210FE004EB411294
:104B5000D2F8005B002D02DAC2F800CB01E0C2F807
:104B6000000BC2F8100BC2F8083B491C8E42EDD86E
:104B7000D4F8101821F48071C4F81018012F0AD14C
:104B80001449C4F83018D4F83018134A1143C4F843
:104B90003018D4F83018A0616FF0804060611FB900
:104BA000A06940F01000A061A0690C490843A06111
:104BB000BAF1000F03D0A06940F00800A061B8F17D
:104BC000010F03D1A06906490843A0610020BDE898
:104BD000F0870000000180000300010000383C80E5
:104BE00004000040816821F00101816000207047CD
:104BF00030B54D784D4C0B7800EB4313012D28D088
:104C0000D3F8105B6FF31205C3F8105B0B7800EB61
:104C10004313D3F8105B2540C3F8105B4B690BB10D
:104C20008B684B610B7800EB4313D3F8104B44F4C3
:104C30000024C3F8104B0B7800EB4313D3F8104B50
:104C40008D68C5F312052C43C3F8104B012A5CD0C4
:104C500061E04D69002DD3F810593BD06FF3120578
:104C6000C3F810590B7800EB4313D3F810592540C3
:104C7000C3F810594C698B689C4200D94B610B7882
:104C800000EB4313D3F8104944F40024C3F810494F
:104C90000B7800EB4313D3F810494D69C5F31205A7
:104CA00054EA0504C3F810490B7800EB4313D3F81A
:104CB000004944F00444C3F80049012A1ED04A695F
:104CC00012B3D0F834280B78012199400A43C0F878
:104CD000342829E02540C3F810590B7800EB431322
:104CE000D3F8104944F40024C3F810490B7800EBC2
:104CF0004313D3F810496FF31204D3E70A69097814
:104D000000EB4110C0F814290EE00B7800EB4313C0
:104D1000CA68C3F8142B097800EB4110D0F8001BC7
:104D200041F00441C0F8001B002030BDFFFF07E048
:104D30000023C0F8103BD0F8103B43F40023C0F828
:104D4000103BD0F8103B43F01803C0F8103BD0F8EC
:104D5000103B43F0C043C0F8103B012905D1C0F817
:104D6000142B4FF08021C0F8001B002070474B78B7
:104D70000A7800EB4212012B0BD0D2F8003B23F44F
:104D80000013C2F8003BCA78032A17D0022A15D0B4
:104D90001DE0D2F8003923F40013C2F80039CA78B4
:104DA000032A01D0022A12D1097800EB4110D0F871
:104DB000001941F08051C0F8001908E0097800EBB3
:104DC0004110D0F8001B41F08051C0F8001B0020BA
:104DD00070474B780A7800EB4212012B14D0D2F8BE
:104DE000003B002B05DBD2F8003B23F08043C2F8E8
:104DF000003B097800EB4110D0F8001B41F4001192
:104E0000C0F8001B00207047D2F80039002B05DBEA
:104E1000D2F8003923F08043C2F80039097800EB5A
:104E20004110D0F8001941F40011C0F80019E9E769
:104E300078B54E786FF06045834C0B7800EB4313E8
:104E4000012E2FD0D3F8106B6FF31206C3F8106B3E
:104E50000B7800EB4313D3F8106B2640C3F8106BAC
:104E60004B69002B7DD08C6823445B1EB3FBF4F3AD
:104E70009BB20C7800EB4414D4F8106B05EAC345E0
:104E80002E43C4F8106B0C7800EB4414D4F8105B7C
:104E90008E685E43C6F312031D43C4F8105B012AFB
:104EA00073D0B2E04E6966B3D3F810696FF312069F
:104EB000C3F810690B7800EB4313D3F81069264050
:104EC000C3F810694C698B681C44641EB4FBF3F38F
:104ED00005EAC3440B7800EB4313D3F810592C4375
:104EE000C3F810490B7800EB4313D3F810494D6910
:104EF000C5F312052C43C3F81049CB78012B16D00B
:104F000027E0D3F810592540C3F810590B7800EB6F
:104F10004313D3F8104944F40024C3F810490B7824
:104F200000EB4313D3F810496FF312040FE00B7832
:104F300000EB4313D3F8104924F0C044C3F81049E0
:104F40000B7800EB4313D3F8104944F00054C3F836
:104F50001049012A12D0CB78012B17D04B692BB303
:104F600000E037E0D0F834380D780124AC4023431A
:104F7000C0F83438CB78012B08D017E00C7800EB60
:104F800044140B69C4F81439F4E738E0D0F8083851
:104F9000DB050B7800EB4313D3F8004902D444F04F
:104FA000005401E044F08054C3F800490B7800EB52
:104FB0004313D3F8004944F00444C3F80049CB78C4
:104FC000012B3ED100928A8A93B20A78C96800F018
:104FD000E7F836E00B7800EB4313D3F8104B8D68FD
:104FE000C5F312052C43C3F8104B0B7800EB4313A9
:104FF000D3F8104B44F40024C3F8104B4FE70B7860
:1050000000EB4313CA68C3F8142BCA78012A0FD1E6
:10501000D0F80828D2050A7800EB4212D2F8003BFB
:1050200002D443F0005301E043F08053C2F8003B48
:10503000097800EB4110D0F8001B41F00441C0F8A2
:10504000001B002078BD0000FFFF07E0816841F0F1
:105050000101816000207047002110220261054A91
:10506000491C914201D9032070470369DB06F7D43C
:1050700000207047400D03000022202343EA8111E5
:1050800001610549521C8A4201D903207047036916
:105090009B06F7D400207047400D03000021D0F894
:1050A000082812F0060F15D0D0F80828C2F34102E4
:1050B000012A0CD0D0F80828C2F34102032A06D0F6
:1050C000D0F80808C0F34100022802D002E0032112
:1050D00000E0022108467047406900F00100704777
:1050E000D0F81818D0F81C08084080B27047D0F8E3
:1050F0001818D0F81C080840000C7047D0F8103879
:10510000D0F83428CA4002F0010243EAC21200EB90
:105110004110D0F808091040704700EB4111D1F858
:10512000081BD0F81408084070474169806908409E
:10513000704710B503460020D21C920803F5805337
:1051400003E01C6841F8044B401C9042F9D3084628
:1051500010BD10B5C26822F0C042C260012901D062
:1051600021B107E0C16841F0005102E0C16841F09F
:105170008041C1603220FCF7DFF8002010BDD0F87C
:10518000002822F4FE62C0F80028D0F800284FF46E
:10519000FE6303EA01110A43C0F8002800207047AB
:1051A00030B50024039D6DB9DB1C9B0800EB023079
:1051B00000F5805004E000BF51F8042B0260641C2D
:1051C0009C42F9D3002030BDFEE7FEE703B401980E
:1051D0004100009850EAC12018BF04204A0D18BFB2
:1051E00040F0010040F2FF72B2EB515F08BF40F0A7
:1051F0000200012808BF052002B07047000000002F
:105200002DE9F04D2DED040B2DED0E8B96B0DDE963
:105210002550279CDDF890A025F0004624F000489A
:10522000BAF1000F14BF0121002101EB4502FC4936
:1052300053184A1093422AD3002814BF0123002395
:1052400003EB44030B44F7498B4220D358EA000197
:105250009FEDF59B76D0DFF8D8B35D4503D1BAF169
:10526000000F05D188E0BAF1000F08BF002100D07F
:10527000012101EB450111F5001F08D8002814BFDA
:105280000121002101EB440111F5001F0BD99DED17
:10529000261B9DED240B16B0BDEC0E8B04B0BDE8B3
:1052A000F04D00F069BE0027002DBCBFE1498845E4
:1052B00021DAE1498845A8BF02271CDAC3451ADC78
:1052C000DE4901EB2851142908DDC1F1340220FA2E
:1052D00002F101FA02F282420DD108E058B9C1F19F
:1052E000140228FA02F101FA02F2424503D101F058
:1052F0000101C1F1020756EA0A0124D1002C22DA89
:10530000002D18BF022F01D0012F0AD0022000F07B
:105310007FFE16B0BDEC0E8B04B0BDE8F04D00F082
:1053200013BE022000F074FE00F00EFE51EC100BD4
:1053300081F0004141EC100B16B0BDEC0E8B04B0B7
:10534000BDE8F08D18E09FEDBEAB9FEDBF8B002850
:1053500071D1B848804522D105F1804010F5801008
:1053600008BFBAF1000F07D0B3450ADC002CA8BF74
:105370009DED260BE0DA0DE0B0EE490AF0EE690A89
:10538000DAE7002C06DA9DED260B51EC100B81F0CC
:1053900000416FE0AE48784490ED000BCCE7D84573
:1053A0004DD1002C48DA2EB186423AD1BAF1000F25
:1053B00042D126E0BAF1000F13D0022000F028FEFF
:1053C00000F0F6FD8DED020B9DED240B8DED000B35
:1053D00010EE900A039961F31E0003909DED020BFD
:1053E000AAE78DED02AB9DED240B1AEE901A10EE9C
:1053F000900A8DED000B61F31E0003909DED020BF2
:105400009AE78DED028B9DED240B18EE901A10EEAD
:10541000900A8DED000B61F31E0003909DED020BD1
:105420008AE709DA9DED240B51EC190B53EC102B94
:10543000FBF701F91EE020E09DED240B7CE786429E
:105440001BDAB4F1804F0DD0A4F10050B0F1FF5041
:1054500013D1002D11DB9DED240B51EC100B00F04E
:1054600001FF07E09DED240B53EC102B51EC100BCA
:1054700000F0C2BC41EC100B5EE79DED240B51EC3B
:10548000100B00F0CBFDBAF1000FCDE90E0142D1B7
:105490009FED710B46B3A6F1E040B0F17F600CD0F8
:1054A0005E4538D1002D00DAA7B3022F0CBF0120D2
:1054B0004FF0FF30FAF7FAFFDCE7002D01DD002C9A
:1054C0000DDA002D01DD002C1FDB002D16DA002C7B
:1054D00014DB012F08BF9FED620B3FF42DAFB0EE40
:1054E0004A0AF0EE6A0A27E7022F18BF002D0CD0F7
:1054F000012F0AD1002DFFF61FAF06E0002DB8BF27
:10550000002C08DA012F3FF417AFB0EE480AF0EE96
:10551000680A11E71BE0012000EBE57050EA070183
:1055200015D0791EB0EE498AF0EE698A084308BFAB
:105530009FED4D8B4E480025804570DD4D494E480E
:10554000884514DDB0420DDB002C19DB2FE0012073
:1055500000F05EFD16B0BDEC0E8B04B0BDE8F04D62
:1055600000F016BDB34502DC002C09DC1FE08642CA
:1055700002DA002C1BDA03E05E452BDD002C16DD81
:10558000022000F045FD00F013FD8DED020B53EC01
:105590001A2B51EC180BFAF717FFCDE9000103990C
:1055A000019861F31E0003909DED020BC4E60220FA
:1055B00000F02EFD00F00CFD10EE901A18EE900A8F
:1055C0008DED020B8DED008B61F31E0003909DEDC0
:1055D000020BB1E69DED0E0B53EC192B51EC100BA9
:1055E000FAF7ECFE9FED260BCDE9080153EC102BEA
:1055F0009DED080B51EC100BFAF7E6FE9FED221B18
:1056000053EC112BFAF7DDFE9DED081B53EC112B2B
:10561000FAF7DAFE9FED1E1B53EC112B3CE08CE0F9
:10562000FFFF1F00FFFF0F00000000000000F03F21
:105630000000F03F0000F07F0000404301FCFFFF4E
:10564000000000000000F07F0000000000000000EB
:10565000E60F0000000000000000000000000080D5
:10566000000000000000F0FF000000000000F0BF9C
:105670000000E0410000F043FFFFEF3F00000000AA
:10568000000000000000D03F555555555555D53FF9
:10569000000000000000E03FFAF793FE9DED080BCC
:1056A00041EC1A0B53EC102B51EC100BFAF78CFE5B
:1056B00053EC1A2BFAF788FE41EC1A0B9FEDFE0B08
:1056C00053EC102B9DED080B51EC100BFAF77CFE00
:1056D00041EC1B0B9FEDFA0B51EC1A0B53EC102B0A
:1056E000FAF772FE41EC1A0B9FEDF70B53EC102BFF
:1056F0009DED080B51EC100BFAF766FE53EC1A2BDC
:10570000FAF75CFE41EC1A0B51EC1B0B53EC1A2B15
:10571000FAF7B3FD0690CDE906519DED060B53EC6B
:105720001B2B51EC100BFAF749FE53EC1A2BFAF72E
:1057300048FE41EC100B00F0A1B90020B6F5801F27
:105740000EDA9FEDE30B53EC102B9DED0E0B51EC9D
:10575000100BFAF739FECDE90E016FF034000E465A
:1057600000EB2650A0F2FF37C6F31300DA4940F0F1
:105770007F6646F040568842D8BF002408DDD749EE
:105780008142C8BF012403DC0024A6F580167F1CDB
:10579000D348784400EBC4000F9690ED00CB9DED0C
:1057A0000E0B53EC1C2B51EC100BFAF707FE9DED82
:1057B0000E0B41EC1B0B53EC1C2B51EC100BFAF7AE
:1057C0005CFD41EC100B51EC190B53EC102BFAF76C
:1057D00032FF41EC1D0B51EC1B0B53EC1D2BFAF768
:1057E000F3FD41EC1A0BBF488DED10AB78441095DA
:1057F00090ED000B4FF0005040EA660000EB844053
:105800008DED080B00F5002009909DED080B53EC81
:105810001C2B51EC100BFAF7D1FD9DED0E1B53EC38
:10582000112BFAF7CEFD41EC100B53EC102B9DED34
:10583000100B51EC100BFAF7C7FD9DED080B41EC76
:105840001C0B53EC102B9DED100B51EC100BFAF7C9
:10585000BBFD53EC1B2BFAF7B4FD53EC1C2BFAF7F2
:10586000ADFD53EC1D2BFAF7AFFD41EC1C0B53ECD7
:105870001A2B51EC1A0BFAF7A7FD41EC1B0B9A48B7
:105880000621B0EE4B0AF0EE6B0A784400F0E0FA25
:10589000B0EE401AF0EE601AB0EE41DAF0EE61DAE6
:1058A00053EC1B2B51EC1B0BFAF78EFD53EC1D2B0D
:1058B000FAF78AFD9DED100B41EC1B0B53EC1A2BF4
:1058C00051EC100BFAF7D9FC53EC1C2BFAF77CFDCA
:1058D00053EC1B2BFAF7D1FC9DED100B41EC1B0B8D
:1058E00053EC102B51EC100BFAF76EFD41EC1D0B35
:1058F0009FED7FEB53EC1E2BFAF7BFFC53EC1B2BF9
:10590000FAF7BBFC0890CDE908519DED080B53EC6C
:105910001E2B51EC100BFAF751FD53EC1D2BFAF72F
:105920004DFD53EC1B2BFAF74CFD9DED080B41ECA4
:105930001D0B53EC102B9DED100B51EC100BFAF7D7
:1059400043FD41EC1B0B53EC1A2B51EC1D0BFAF7EA
:105950003BFD9DED080B41EC1A0B53EC102B51EC69
:105960001C0BFAF731FD53EC1A2BFAF786FC41ECCD
:105970001A0B51EC1B0B53EC1A2BFAF77EFC0C9014
:10598000CDE90C519DED0C0B53EC1B2B51EC100B86
:10599000FAF714FD53EC1A2BFAF713FD41EC1B0B2D
:1059A0009FED550B53EC102B9DED0C0B51EC100B98
:1059B000FAF70AFD41EC1A0B9FED510B51EC1B0B52
:1059C00053EC102BFAF700FD41EC1B0B9FED4E0B37
:1059D00053EC102B9DED0C0B51EC100BFAF7F4FC73
:1059E00053EC1B2BFAF749FC41EC100B4848784468
:1059F00000EBC40090ED001B51EC100B53EC112B8D
:105A0000FAF73BFC41EC1B0B3846FAF74FFDCDE9AA
:105A1000080153EC1B2B51EC1A0BFAF72EFC41EC4E
:105A2000100B3C48784400EBC40090ED00CB51ECE7
:105A3000100B53EC1C2BFAF720FC9DED081B53ECCC
:105A4000112BFAF71AFC0690CDE906519DED080BD3
:105A500053EC102B9DED060B51EC100BFAF7AEFC3E
:105A600053EC1C2BFAF7AAFC53EC1A2BFAF7A6FC02
:105A700053EC1B2BFAF7A5FC41EC100B9DED261BFC
:105A800053EC102B8DED001B00959DED260B51EC7A
:105A9000100BFAF799FC9DED000B41EC1A0B53EC3F
:105AA000102B9DED260B51EC100BFAF787FC9DEDAA
:105AB000061B53EC112B2FE0000000604715F73F49
:105AC000FE822B654715F73F44DF5DF80BAE543E71
:105AD00000000000000040438E9803007AB60B00DF
